:400000000010002011000000910200009102000010B500F045F9C04670B5164C23688022D20213432360182000F024FA2268124B13402360114A124B1A601022114B1A60C2
:400040001032114B1A6080221206104B1A60002525600F4A0F4B1A600F4A104B1A601049092000F0EBF9092000F0DCF90D4B1D6070BDC04600010B40FFFFFBFF06000080BE
:4000800004010B40340202403C02024008010B4001000080000002401700008040000240850600000C020B4010B572B600240FE02E486200131959000B00411889881A5A9E
:4000C000C31858880004104300F0DCF80134E4B2012CEDD925490C3125483C3000F0B8F8244A254B1A60CC229202244B1A60EE221202234B1A6099231B04224A1360C321DB
:400100000905214A1160214A13602149214A1160214A1360214A1360214A224B1A60224A224B1A6022490B783C22934314221343DBB20B701F4A117816230B43DBB2137011
:4001400024221D4B1A601D4A1D4B1A6018221D4B1A601D4A1D4B1A601D4A1E4B1A60D82212011D4B1A60FFF757FF10BDB8070000380900000003300000000140040001409E
:400180000C00014000500F4008500F4010500F400000150218500F4020500F4030500F40C4C4040058300F40C4C404C4D8300F4001700F4000700F40000004408001030050
:4001C0000800044000010440186C000008010440D8800100080204400803044010B5064C2378002B07D1054B002B02D0044800E000BF0123237010BD4001002000000000D5
:40020000B4070000084B10B5002B03D00749084800E000BF07480368002B00D110BD064B002BFBD09847F9E70000000044010020B4070000C00000200000000010B562B648
:4002400000F0CEF800F0E4F800F0D8F8FEE7C046F0B50025002711E0BB00C658F3B2FF22964308E06A008A181478A419527822700135013BDBB2002BF4D10137092FEBD93B
:40028000F0BDC04610B50A00002100F08BFA10BD10B500F05BFA03680C2B00D1FEE7FEE770B50F4E0F4D13E029686B68AC68002202E001C901C30432A242FAD1E8680022E0
:4002C00002E0002102C304328242FAD11035013E002EE9D100F040FAFFF7B0FFFEE7C04601000000F009000010B500230AE0032B03D89A000949505800E009489900094AC5
:40030000885001332F2BF2D9FFF7CEFE8022D205116801230B43136010BDC046000000009102000000000020014B18807047C04600100F40014B18807047C04680100F40ED
:40034000014B18807047C04640100F40014B18707047C04681000F40014B1878C0B2704761000F40014B188880B27047A0100F4010B501E0FFF7F6FFFFF7EEFFC306F9D449
:4003800010BDC04670B512490A7801231A43D2B20A70104C22781343DBB223700E4D2800FFF7C2FF2800FFF7C5FF0C48FFF7C8FF0020FFF7CBFF00F0C1F9227810231343A3
:4003C000DBB2237000F0BEF9FFF7D2FF70BDC04690000F4091000F40FFFF0000AF3C000010B5054B1B78002B04D1FFF7CBFF0122014B1A7010BDC0465C010020034A13681B
:40040000802109060B4313607047C04600000240034A1368802109060B4313607047C046400002401F2318401E3B8340014A13607047C04600E100E001BE704770B5040043
:400440000D001F2802D90020FFF7F6FF1034A40080239B059C4664442068256070BDC04610B5034B1B7B584300F05EF910BDC046C4000020F0B557464E46C0B483B004008A
:4004800000F05CF90190E71E2D2F74D83F4B1B78DBB29C4208D83E4B1B78DBB29A463D4B1B78DBB2994631E03B4B1B78DBB29C4208D83A4B1B78DBB29A46394B1B78DBB2A3
:4004C000994623E0374B1B78DBB29C4208D8364B1B78DBB29A46354B1B78DBB2994615E0334B1B78DBB29C4208D8324B1B78DBB29A46314B1B78DBB2994607E02F4B1B787D
:40050000DBB29A462E4B1B78DBB299462D4BDE5D2F2E09D92A2C07D919222B4B1A60052000F002F9192503E0274B1D683F231D40B54206D9234BDA5D234B1A60052000F024
:40054000F3F81F4B9C4664442378DBB21F4A13601F4B52461A601F4B4A461A600520FFF77FFFB5420AD2174BDA5D174B1A60052000F0DAF802E00020FFF75EFF019800F002
:40058000E1F803B00CBC91469A46F0BDC0F1FF0FC1F1FF0FC2F1FF0FC3F1FF0FC4F1FF0FC5F1FF0FC6F1FF0FC7F1FF0FC8F1FF0FC9F1FF0FCAF1FF0FCBF1FF0FCCF1FF0F82
:4005C000CDF1FF0F9C0900002CFF0B4028FF0B401CFF0B4020FF0B40034B1868C0231B02184000D00120704700010B4010B500F0A5F8044A1368C02109020B43136000F000
:40060000A1F810BD00010B4010B500F097F808490A68084B1A408024E40122430A600A6813408022120213430B6000F08BF810BD00010B40FF3FFFFF70B5050000F07EF868
:400640000400FFF7C9FF002803D0FFF7DDFF012100E0002108482840084A1568084B2B40184310601368012901D1FFF7BFFF200000F068F870BDC0460404040010020B4081
:40068000FBFBFBFF10B5244B1B685B0715D5234B1B685B070ED5224BD969042001401F4C22688A432260DA698243DA611B69002B00D098470420FFF7BFFF174B1B685B05FB
:4006C00018D5164B1B685B0510D5154BD9698022D2001140114802688A430260D969114A0A40DA615B69002B00D098478020C000FFF7A2FF084B1B685B030CD5074B1B68EA
:400700005B0304D5064B9B69002B00D098478020C002FFF791FF10BD10020B40D800002060010020FFFBFFFF0230800804D0C0460138FDD1C046C046C0467047EFF31080FA
:4007400072B6704780F310887047C046014B18687047C0463C0100200E4B70B500251E000D4CE41AA410A54204D0AB00F35898470135F8E700F02AF9084B00251E00084C7E
:40078000E41AA410A54204D0AB00F35898470135F8E770BDD8090000D8090000D8090000E009000003008218934202D019700133FAE770470000000000300F4000040040CD
:4007C0000F400004810D15011801190124012801350136013C804031410449FF4AFF4BFF4DA04F045018580459045A045C335D035F01604062C06440654066C068C06AC036
:400800006CC06EC08B018C169406950296199A02A008A211A501A604A901AC06AD02B010B102B20EB401B501B601B902BA02BC0ABE10C031C104C5D1C602C817C9FFCAFF1A
:40084000CBFFCDAFCE0FCF04D018D405D804D904DA04DB04DC33DD33DF05E040E2C0E440E540E6C0E8C0EAC0ECC0EEC0044009200D080F0810281680178819801C501D08BB
:400880001E051F802120240427802C282D40302837083C104010428143404508468047404C204D01540856805D815E047B807F808D408F04C080C262C4B6CA70CC46CE20F4
:4008C000D0DBD6D0DE81060207030B020C030D031008120422042E012F013003320433033404360838203E543F04580459045C015F01044006200E80154016801C101D4033
:400900001E801F2026082D403C443D803E2086808A088C108F20900491409A209D40A140AA20AB08AD40B140C0A0C210C490CA10CE70E250E680EA0457016780D620D880D8
:4009400007805004630887808B408C048F049780AF01C020D420D840E040EE10004006800E408C40C006C204E202AA40B280EE04010A100A01000F4053300F402D310F4019
:4009800016320F4023330F4004400F400E410F4007420F4003430F4002600F40030405060708090A0B0C0E0F101112131415161718191B1C1D1E1F202122232526272829DD
:4009C0002A2B2E2F3031323334354300F8B5C046F8BC08BC9E46704705020000E9020000F8B5C046F8BC08BC9E467047DD010000000A0000C00000208000000040000000CD
:400A000000000000010000000000E02EC05D00001800000000366E01040404000000000000000000000000000000000000000000000000000000000000000000CA090000EE
:400A4000000000000000000000000000000000000000000000000000000000000000000000000000000000000000000000000000000000000000000000000000DC0000207A
:400A800000100020910A0000190D0000190D000010B5024B83F3088800F046F90010002070B5164C23688022D20213432360182000F02CFA2268124B13402360114A124B84
:400AC0001A601022114B1A601032114B1A6080221206104B1A60002525600F4A0F4B1A600F4A104B1A601049092000F0F3F9092000F0E4F90D4B1D6070BDC04600010B4020
:400B0000FFFFFBFF0600008004010B40340202403C02024008010B40010000800000024017000080400002401D1100000C020B4010B572B600240FE02E48620013195900DB
:400B40000B00411889881A5AC31858880004104300F0DCF80134E4B2012CEDD925490C3125483C3000F0B8F8244A254B1A60CC229202244B1A60EE221202234B1A60992349
:400B80001B04224A1360C3210905214A1160214A13602149214A1160214A1360214A1360214A224B1A60224A224B1A6022490B783C22934314221343DBB20B701F4A11783C
:400BC00016230B43DBB2137024221D4B1A601D4A1D4B1A6018221D4B1A601D4A1D4B1A601D4A1E4B1A60D82212011D4B1A60FFF757FF10BD50120000D013000000033000BE
:400C000000000140040001400C00014000500F4008500F4010500F400000150218500F4020500F4030500F40C4C4040058300F40C4C404C4D8300F4001700F4000700F4007
:400C400000000440800103000800044000010440186C000008010440D8800100080204400803044010B5064C2378002B07D1054B002B02D0044800E000BF0123237010BDE3
:400C800048010020000000004C120000084B10B5002B03D00749084800E000BF07480368002B00D110BD064B002BFBD09847F9E7000000004C0100204C120000C8000020DC
:400CC0000000000010B562B600F0D6F800F0ECF800F0E0F8FEE7C046F0B50025002711E0BB00C658F3B2FF22964308E06A008A181478A419527822700135013BDBB2002BB5
:400D0000F4D10137092FEBD9F0BDC04610B50A00002100F093FA10BD10B500F063FA03680C2B00D1FEE7FEE770B50F4E0F4D13E029686B68AC68002202E001C901C304326D
:400D4000A242FAD1E868002202E0002102C304328242FAD11035013E002EE9D100F048FAFFF7B0FFFEE7C046010000008814000010B500230AE0032B03D89A000C49505888
:400D800000E00C4899000C4A885001332F2BF2D9FFF7CEFE094B1B68002B02D10022074B1A608022D205116801230B43136010BD800A0000190D000000000020C000002006
:400DC000014B18807047C04600100F40014B18807047C04680100F40014B18807047C04640100F40014B18707047C04681000F40014B1878C0B2704761000F40014B188831
:400E000080B27047A0100F4010B501E0FFF7F6FFFFF7EEFFC306F9D410BDC04670B512490A7801231A43D2B20A70104C22781343DBB223700E4D2800FFF7C2FF2800FFF7A8
:400E4000C5FF0C48FFF7C8FF0020FFF7CBFF00F0C1F9227810231343DBB2237000F0BEF9FFF7D2FF70BDC04690000F4091000F40FFFF0000AF3C000010B5054B1B78002BB4
:400E800004D1FFF7CBFF0122014B1A7010BDC04664010020034A1368802109060B4313607047C04600000240034A1368802109060B4313607047C046400002401F23184002
:400EC0001E3B8340014A13607047C04600E100E001BE704770B504000D001F2802D90020FFF7F6FF1034A40080239B059C4664442068256070BDC04610B5034B1B7B584388
:400F000000F05EF910BDC046CC000020F0B557464E46C0B483B0040000F05CF90190E71E2D2F74D83F4B1B78DBB29C4208D83E4B1B78DBB29A463D4B1B78DBB2994631E01E
:400F40003B4B1B78DBB29C4208D83A4B1B78DBB29A46394B1B78DBB2994623E0374B1B78DBB29C4208D8364B1B78DBB29A46354B1B78DBB2994615E0334B1B78DBB29C4231
:400F800008D8324B1B78DBB29A46314B1B78DBB2994607E02F4B1B78DBB29A462E4B1B78DBB299462D4BDE5D2F2E09D92A2C07D919222B4B1A60052000F002F9192503E0FC
:400FC000274B1D683F231D40B54206D9234BDA5D234B1A60052000F0F3F81F4B9C4664442378DBB21F4A13601F4B52461A601F4B4A461A600520FFF77FFFB5420AD2174B22
:40100000DA5D174B1A60052000F0DAF802E00020FFF75EFF019800F0E1F803B00CBC91469A46F0BDC0F1FF0FC1F1FF0FC2F1FF0FC3F1FF0FC4F1FF0FC5F1FF0FC6F1FF0FD2
:40104000C7F1FF0FC8F1FF0FC9F1FF0FCAF1FF0FCBF1FF0FCCF1FF0FCDF1FF0F341400002CFF0B4028FF0B401CFF0B4020FF0B40034B1868C0231B02184000D00120704723
:4010800000010B4010B500F0A5F8044A1368C02109020B43136000F0A1F810BD00010B4010B500F097F808490A68084B1A408024E40122430A600A6813408022120213439D
:4010C0000B6000F08BF810BD00010B40FF3FFFFF70B5050000F07EF80400FFF7C9FF002803D0FFF7DDFF012100E0002108482840084A1568084B2B401843106013680129C6
:4011000001D1FFF7BFFF200000F068F870BDC0460404040010020B40FBFBFBFF10B5244B1B685B0715D5234B1B685B070ED5224BD969042001401F4C22688A432260DA6959
:401140008243DA611B69002B00D098470420FFF7BFFF174B1B685B0518D5164B1B685B0510D5154BD9698022D2001140114802688A430260D969114A0A40DA615B69002B74
:4011800000D098478020C000FFF7A2FF084B1B685B030CD5074B1B685B0304D5064B9B69002B00D098478020C002FFF791FF10BD10020B40E000002068010020FFFBFFFFA6
:4011C0000230800804D0C0460138FDD1C046C046C0467047EFF3108072B6704780F310887047C046014B18687047C046440100200E4B70B500251E000D4CE41AA410A542D1
:4012000004D0AB00F35898470135F8E700F02AF9084B00251E00084CE41AA410A54204D0AB00F35898470135F8E770BD7014000070140000701400007814000003008218BA
:40124000934202D019700133FAE770470000000000300F40000400400F400004810D15011801190124012801350136013C804031410449FF4AFF4BFF4DA04F045018580479
:4012800059045A045C335D035F01604062C06440654066C068C06AC06CC06EC08B018C169406950296199A02A008A211A501A604A901AC06AD02B010B102B20EB401B50149
:4012C000B601B902BA02BC0ABE10C031C104C5D1C602C817C9FFCAFFCBFFCDAFCE0FCF04D018D405D804D904DA04DB04DC33DD33DF05E040E2C0E440E540E6C0E8C0EAC075
:40130000ECC0EEC0044009200D080F0810281680178819801C501D081E051F802120240427802C282D40302837083C104010428143404508468047404C204D015408568091
:401340005D815E047B807F808D408F04C080C262C4B6CA70CC46CE20D0DBD6D0DE81060207030B020C030D031008120422042E012F013003320433033404360838203E541B
:401380003F04580459045C015F01044006200E80154016801C101D401E801F2026082D403C443D803E2086808A088C108F20900491409A209D40A140AA20AB08AD40B140DA
:4013C000C0A0C210C490CA10CE70E250E680EA0457016780D620D88007805004630887808B408C048F049780AF01C020D420D840E040EE10004006800E408C40C006C204C4
:40140000E202AA40B280EE04010A100A01000F4053300F402D310F4016320F4023330F4004400F400E410F4007420F4003430F4002600F40030405060708090A0B0C0E0F13
:40144000101112131415161718191B1C1D1E1F2021222325262728292A2B2E2F3031323334354300F8B5C046F8BC08BC9E4670478D0C0000710D0000F8B5C046F8BC08BC99
:401480009E467047650C000098140000C8000020800000004000000000000000010000000000E02EC05D00001800000000366E0104040400000000000000000000000000D7
:4014C0000000000000000000000000000000000000000000621400000000000000000000000000000000000000000000000000000000000000000000000000000000000076
:401500000000000000000000000000000000000000000000E400002000000000000000000000000000000000000000000000000000000000000000000000000000000000A7
:40154000000000000000000000000000000000000000000000000000000000000000000000000000000000000000000000000000000000000000000000000000000000006B
:401580000010002091150000191800001918000010B5024B83F3088800F046F90010002070B5164C23688022D20213432360182000F02CFA2268124B13402360114A124B58
:4015C0001A601022114B1A601032114B1A6080221206104B1A60002525600F4A0F4B1A600F4A104B1A601049092000F0F3F9092000F0E4F90D4B1D6070BDC04600010B4015
:40160000FFFFFBFF0600008004010B40340202403C02024008010B40010000800000024017000080400002401D1C00000C020B4010B572B600240FE02E48620013195900C5
:401640000B00411889881A5AC31858880004104300F0DCF80134E4B2012CEDD925490C3125483C3000F0B8F8244A254B1A60CC229202244B1A60EE221202234B1A6099233E
:401680001B04224A1360C3210905214A1160214A13602149214A1160214A1360214A1360214A224B1A60224A224B1A6022490B783C22934314221343DBB20B701F4A117831
:4016C00016230B43DBB2137024221D4B1A601D4A1D4B1A6018221D4B1A601D4A1D4B1A601D4A1E4B1A60D82212011D4B1A60FFF757FF10BD501D0000D01E0000000330009D
:4017000000000140040001400C00014000500F4008500F4010500F400000150218500F4020500F4030500F40C4C4040058300F40C4C404C4D8300F4001700F4000700F40FC
:4017400000000440800103000800044000010440186C000008010440D8800100080204400803044010B5064C2378002B07D1054B002B02D0044800E000BF0123237010BDD8
:4017800048010020000000004C1D0000084B10B5002B03D00749084800E000BF07480368002B00D110BD064B002BFBD09847F9E7000000004C0100204C1D0000C8000020BB
:4017C0000000000010B562B600F0D6F800F0ECF800F0E0F8FEE7C046F0B50025002711E0BB00C658F3B2FF22964308E06A008A181478A419527822700135013BDBB2002BAA
:40180000F4D10137092FEBD9F0BDC04610B50A00002100F093FA10BD10B500F063FA03680C2B00D1FEE7FEE770B50F4E0F4D13E029686B68AC68002202E001C901C3043262
:40184000A242FAD1E868002202E0002102C304328242FAD11035013E002EE9D100F048FAFFF7B0FFFEE7C04601000000881F000010B500230AE0032B03D89A000C49505872
:4018800000E00C4899000C4A885001332F2BF2D9FFF7CEFE094B1B68002B02D10022074B1A608022D205116801230B43136010BD801500001918000000000020C0000020E5
:4018C000014B18807047C04600100F40014B18807047C04680100F40014B18807047C04640100F40014B18707047C04681000F40014B1878C0B2704761000F40014B188826
:4019000080B27047A0100F4010B501E0FFF7F6FFFFF7EEFFC306F9D410BDC04670B512490A7801231A43D2B20A70104C22781343DBB223700E4D2800FFF7C2FF2800FFF79D
:40194000C5FF0C48FFF7C8FF0020FFF7CBFF00F0C1F9227810231343DBB2237000F0BEF9FFF7D2FF70BDC04690000F4091000F40FFFF0000AF3C000010B5054B1B78002BA9
:4019800004D1FFF7CBFF0122014B1A7010BDC04664010020034A1368802109060B4313607047C04600000240034A1368802109060B4313607047C046400002401F231840F7
:4019C0001E3B8340014A13607047C04600E100E001BE704770B504000D001F2802D90020FFF7F6FF1034A40080239B059C4664442068256070BDC04610B5034B1B7B58437D
:401A000000F05EF910BDC046CC000020F0B557464E46C0B483B0040000F05CF90190E71E2D2F74D83F4B1B78DBB29C4208D83E4B1B78DBB29A463D4B1B78DBB2994631E013
:401A40003B4B1B78DBB29C4208D83A4B1B78DBB29A46394B1B78DBB2994623E0374B1B78DBB29C4208D8364B1B78DBB29A46354B1B78DBB2994615E0334B1B78DBB29C4226
:401A800008D8324B1B78DBB29A46314B1B78DBB2994607E02F4B1B78DBB29A462E4B1B78DBB299462D4BDE5D2F2E09D92A2C07D919222B4B1A60052000F002F9192503E0F1
:401AC000274B1D683F231D40B54206D9234BDA5D234B1A60052000F0F3F81F4B9C4664442378DBB21F4A13601F4B52461A601F4B4A461A600520FFF77FFFB5420AD2174B17
:401B0000DA5D174B1A60052000F0DAF802E00020FFF75EFF019800F0E1F803B00CBC91469A46F0BDC0F1FF0FC1F1FF0FC2F1FF0FC3F1FF0FC4F1FF0FC5F1FF0FC6F1FF0FC7
:401B4000C7F1FF0FC8F1FF0FC9F1FF0FCAF1FF0FCBF1FF0FCCF1FF0FCDF1FF0F341F00002CFF0B4028FF0B401CFF0B4020FF0B40034B1868C0231B02184000D0012070470D
:401B800000010B4010B500F0A5F8044A1368C02109020B43136000F0A1F810BD00010B4010B500F097F808490A68084B1A408024E40122430A600A68134080221202134392
:401BC0000B6000F08BF810BD00010B40FF3FFFFF70B5050000F07EF80400FFF7C9FF002803D0FFF7DDFF012100E0002108482840084A1568084B2B401843106013680129BB
:401C000001D1FFF7BFFF200000F068F870BDC0460404040010020B40FBFBFBFF10B5244B1B685B0715D5234B1B685B070ED5224BD969042001401F4C22688A432260DA694E
:401C40008243DA611B69002B00D098470420FFF7BFFF174B1B685B0518D5164B1B685B0510D5154BD9698022D2001140114802688A430260D969114A0A40DA615B69002B69
:401C800000D098478020C000FFF7A2FF084B1B685B030CD5074B1B685B0304D5064B9B69002B00D098478020C002FFF791FF10BD10020B40E000002068010020FFFBFFFF9B
:401CC0000230800804D0C0460138FDD1C046C046C0467047EFF3108072B6704780F310887047C046014B18687047C046440100200E4B70B500251E000D4CE41AA410A542C6
:401D000004D0AB00F35898470135F8E700F02AF9084B00251E00084CE41AA410A54204D0AB00F35898470135F8E770BD701F0000701F0000701F0000781F00000300821883
:401D4000934202D019700133FAE770470000000000300F40000400400F400004810D15011801190124012801350136013C804031410449FF4AFF4BFF4DA04F04501858046E
:401D800059045A045C335D035F01604062C06440654066C068C06AC06CC06EC08B018C169406950296199A02A008A211A501A604A901AC06AD02B010B102B20EB401B5013E
:401DC000B601B902BA02BC0ABE10C031C104C5D1C602C817C9FFCAFFCBFFCDAFCE0FCF04D018D405D804D904DA04DB04DC33DD33DF05E040E2C0E440E540E6C0E8C0EAC06A
:401E0000ECC0EEC0044009200D080F0810281680178819801C501D081E051F802120240427802C282D40302837083C104010428143404508468047404C204D015408568086
:401E40005D815E047B807F808D408F04C080C262C4B6CA70CC46CE20D0DBD6D0DE81060207030B020C030D031008120422042E012F013003320433033404360838203E5410
:401E80003F04580459045C015F01044006200E80154016801C101D401E801F2026082D403C443D803E2086808A088C108F20900491409A209D40A140AA20AB08AD40B140CF
:401EC000C0A0C210C490CA10CE70E250E680EA0457016780D620D88007805004630887808B408C048F049780AF01C020D420D840E040EE10004006800E408C40C006C204B9
:401F0000E202AA40B280EE04010A100A01000F4053300F402D310F4016320F4023330F4004400F400E410F4007420F4003430F4002600F40030405060708090A0B0C0E0F08
:401F4000101112131415161718191B1C1D1E1F2021222325262728292A2B2E2F3031323334354300F8B5C046F8BC08BC9E4670478D17000071180000F8B5C046F8BC08BC78
:401F80009E46704765170000981F0000C8000020800000004000000000000000010000000000E02EC05D00001800000000366E0104040400000000000000000000000000B6
:401FC0000000000000000000000000000000000000000000621F00000000000000000000000000000000000000000000000000000000000000000000000000000000000060
:402000000000000000000000000000000000000000000000E4000020000000000000000000000000000000000000000000000000000000000000000000000000000000009C
:402040000000000000000000000000000000000000000000000000000000000000000000000000000000000000000000000000000000000000000000000000000000000060
:402080000010002091200000392300003923000010B5024B83F3088800F056F90010002070B5184C23688022D20213432360182000F03CFA2268144B13402360134A144BC4
:4020C0001A601022134B1A602032134B1A60103A124B1A6080221206114B1A6000252560104A114B1A60114B114A1360114A13601149092000F0FEF9092000F0EFF90F4BEA
:402100001D6070BD00010B40FFFFFBFF0600008004010B4034020240380202403C02024008010B4001000080000002401700008040000240800002403D2700000C020B40B8
:4021400010B572B600240FE030486200131959000B00411889881A5AC31858880004104300F0E4F80134E4B2012CEDD927490C312748403000F0C0F8264A274B1A60CC22FD
:402180009202264B1A60EE221202254B1A6099231B04244A13602449244A1160244A1360C0214904234A1160234A1360234A1360234A244B1A60244A244B1A60244A254B52
:4021C0001A6025490B783C22934314221343DBB20B70224A117816230B43DBB2137025221F4B1A601F4A204B1A6018221F4B1A601F4A204B1A60204A204B1A60D8221201DF
:402200001F4B1A60FFF74CFF10BDC04670280000F02A00000303300000000140040001400C00014000500F400000470C08500F4010500F4018500F4020500F4030500F405E
:402240008484040058300F4084840484D8300F4084840404D8320F4001700F4000700F4000000440860103000800044000010440186C000008010440D880010008020440D5
:402280000803044010B5064C2378002B07D1054B002B02D0044800E000BF0123237010BD48010020000000006C280000084B10B5002B03D00749084800E000BF0748036852
:4022C000002B00D110BD064B002BFBD09847F9E7000000004C0100206C280000C80000200000000010B562B600F0D6F800F0ECF800F0E0F8FEE7C046F0B50025002711E022
:40230000BB00C658F3B2FF22964308E06A008A181478A419527822700135013BDBB2002BF4D10137092FEBD9F0BDC04610B50A00002100F093FA10BD10B500F063FA0368FF
:402340000C2B00D1FEE7FEE770B50F4E0F4D13E029686B68AC68002202E001C901C30432A242FAD1E868002202E0002102C304328242FAD11035013E002EE9D100F048FA2E
:40238000FFF7B0FFFEE7C04601000000AC2B000010B500230AE0032B03D89A000C49505800E00C4899000C4A885001332F2BF2D9FFF7C6FE094B1B68002B02D10022074BEC
:4023C0001A608022D205116801230B43136010BD802000003923000000000020C0000020014B18807047C04600100F40014B18807047C04680100F40014B18807047C046A2
:4024000040100F40014B18707047C04681000F40014B1878C0B2704761000F40014B188880B27047A0100F4010B501E0FFF7F6FFFFF7EEFFC306F9D410BDC04670B51249B6
:402440000A7801231A43D2B20A70104C22781343DBB223700E4D2800FFF7C2FF2800FFF7C5FF0C48FFF7C8FF0020FFF7CBFF00F0C1F9227810231343DBB2237000F0BEF94E
:40248000FFF7D2FF70BDC04690000F4091000F40FFFF0000AF3C000010B5054B1B78002B04D1FFF7CBFF0122014B1A7010BDC04664010020034A1368802109060B43136088
:4024C0007047C04600000240034A1368802109060B4313607047C046400002401F2318401E3B8340014A13607047C04600E100E001BE704770B504000D001F2802D9002085
:40250000FFF7F6FF1034A40080239B059C4664442068256070BDC04610B5034B1B7B584300F05EF910BDC046CC000020F0B557464E46C0B483B0040000F05CF90190E71E15
:402540002D2F74D83F4B1B78DBB29C4208D83E4B1B78DBB29A463D4B1B78DBB2994631E03B4B1B78DBB29C4208D83A4B1B78DBB29A46394B1B78DBB2994623E0374B1B78A6
:40258000DBB29C4208D8364B1B78DBB29A46354B1B78DBB2994615E0334B1B78DBB29C4208D8324B1B78DBB29A46314B1B78DBB2994607E02F4B1B78DBB29A462E4B1B781A
:4025C000DBB299462D4BDE5D2F2E09D92A2C07D919222B4B1A60052000F002F9192503E0274B1D683F231D40B54206D9234BDA5D234B1A60052000F0F3F81F4B9C466444DE
:402600002378DBB21F4A13601F4B52461A601F4B4A461A600520FFF77FFFB5420AD2174BDA5D174B1A60052000F0DAF802E00020FFF75EFF019800F0E1F803B00CBC9146D5
:402640009A46F0BDC0F1FF0FC1F1FF0FC2F1FF0FC3F1FF0FC4F1FF0FC5F1FF0FC6F1FF0FC7F1FF0FC8F1FF0FC9F1FF0FCAF1FF0FCBF1FF0FCCF1FF0FCDF1FF0F582B00007D
:402680002CFF0B4028FF0B401CFF0B4020FF0B40034B1868C0231B02184000D00120704700010B4010B500F0A5F8044A1368C02109020B43136000F0A1F810BD00010B40DE
:4026C00010B500F097F808490A68084B1A408024E40122430A600A6813408022120213430B6000F08BF810BD00010B40FF3FFFFF70B5050000F07EF80400FFF7C9FF002850
:4027000003D0FFF7DDFF012100E0002108482840084A1568084B2B40184310601368012901D1FFF7BFFF200000F068F870BDC0460404040010020B40FBFBFBFF10B5244B66
:402740001B685B0715D5234B1B685B070ED5224BD969042001401F4C22688A432260DA698243DA611B69002B00D098470420FFF7BFFF174B1B685B0518D5164B1B685B050D
:4027800010D5154BD9698022D2001140114802688A430260D969114A0A40DA615B69002B00D098478020C000FFF7A2FF084B1B685B030CD5074B1B685B0304D5064B9B69AE
:4027C000002B00D098478020C002FFF791FF10BD10020B40E000002068010020FFFBFFFF0230800804D0C0460138FDD1C046C046C0467047EFF3108072B6704780F31088AC
:402800007047C046014B18687047C046440100200E4B70B500251E000D4CE41AA410A54204D0AB00F35898470135F8E700F0ACF9084B00251E00084CE41AA410A54204D090
:40284000AB00F35898470135F8E770BD942B0000942B0000942B00009C2B000003008218934202D019700133FAE770470000000000300F40000400400F400004810D830D70
:40288000040606090C300D01110212241406150119021A121E302006240128082C0130303301340E3502360139083C203E014023410649FF4AFF4BFF4DA04F045018580456
:4028C00059045A045C335D035F01604062C06440654066C068C06AC06CC06EC087038A018B038E0696019D02A002A20CA814AA0AB008B210B401B501B606B702B802BB8075
:40290000BD80BE55C063C102C5D1C702C833C9FFCAFFCBFFCDAFCE0FCF04D018D405D804D904DA04DB04DC30DD33DF05E040E2C0E440E540E6C0E8C0EAC0ECC0EEC00004E8
:4029400001400608070109180A410F20102A12801480152018041A011B121D411E18212826B0270430223208368038803E083F20400443044608470448084C204D014F2052
:40298000540B56085D815E087A107E2081018210870289408CC08D118E04C0C5C22FC45FCC17CE68D066D224D6D0DE42E010E2800102031407010A040E070F0F1301140388
:4029C000181219021A091B141C091E121F0822072B062F0F310E32183407351037013F10403549FF4AFF4BFF4F015018580459045A045C225D025F016040624064406540B5
:402A0000668068806A806C806E808001860287018E028F0492029304970298019B04A401A503AE02B002B304B503B601BC80BE01BF04C035C5ECC720C823C9FFCAFFCBFFEE
:402A4000CD83CE03CF01D018D290D401D804D904DA04DB04DC13DD22DF01E040E240E440E540E680E880EA80EC80EE8000460480051009220E110F041020120216801980B6
:402A80001A401C041D101E10211822202304274928202E90311232083622374038C03A043C443D023E014108450849054A024E02520259055A407040710272807A108308B3
:402AC000952098209A049D809F01A021A121A218A820A940B648C0CDC2EAC415CA32CCB7CEDAD042D218D60BDE02EE045040570167808040830887408B018D04D420D62052
:402B0000D880E2B005045B105F0883109B089D04C020D480D680E220030405020F808F04C006C204E608A902B740EE02010E100E02000F405F300F4039310F405E320F403D
:402B400040330F400C400F400A410F4007420F4003430F4002600F40030405060708090A0B0C0E0F101112131415161718191B1C1D1E1F2021222325262728292A2B2E2FBF
:402B80003031323334354300F8B5C046F8BC08BC9E467047AD22000091230000F8B5C046F8BC08BC9E46704785220000C02B0000C80000208000000040000000000000005A
:402BC00000000000010000000000E02EC05D00001800000000366E01040404000000000000000000000000000000000000000000000000000000000000000000862B00002F
:402C0000000000000000000000000000000000000000000000000000000000000000000000000000000000000000000000000000000000000000000000000000E400002090
:402C40000000000000000000000000000000000000000000000000000000000000000000000000000000000000000000000000000000000000000000000000000000000054
:402C800000100020912C00003D2F00003D2F000010B5024B83F3088800F058F90010002070B5184C23688022D20213432360182000F03EFA2268144B13402360134A144B88
:402CC0001A601022134B1A602032134B1A60103A124B1A6080221206114B1A6000252560104A114B1A60114B114A1360114A13601149092000F000FA092000F0F1F90F4BD9
:402D00001D6070BD00010B40FFFFFBFF0600008004010B4034020240380202403C02024008010B400100008000000240170000804000024080000240413300000C020B409C
:402D400010B572B600240FE030486200131959000B00411889881A5AC31858880004104300F0E6F80134E4B2012CEDD927490C312748403000F0C2F8264A274B1A60CC22ED
:402D80009202264B1A60EE221202254B1A6099231B04244A13602449244A1160244A1360C0214904234A1160234A1360234A1360234A244B1A60244A244B1A60244A254B46
:402DC0001A6025490B783C22934314221343DBB20B70224A117816230B43DBB2137025221F4B1A601F4A204B1A6018221F4B1A601F4A204B1A60204A204B1A60D8221201D3
:402E00001F4B1A60FFF74CFF10BDC04648350000C83700000303300000000140040001400C00014000500F400000470C08500F4010500F4018500F4020500F4030500F4088
:402E40008484040058300F4084840484D8300F4084840404D8320F4001700F4000700F4000000440860103000800044000010440186C000008010440D880010008020440C9
:402E80000803044010B5064C2378002B07D1054B002B02D0044800E000BF0123237010BD480100200000000044350000084B10B5002B03D00749084800E000BF0748036861
:402EC000002B00D110BD064B002BFBD09847F9E7000000004C01002044350000C80000200000000010B562B600F0D8F800F0EEF800F0E2F800F0D0FAFEE7C046F0B5002589
:402F0000002711E0BB00C658F3B2FF22964308E06A008A181478A419527822700135013BDBB2002BF4D10137092FEBD9F0BDC04610B50A00002100F0FDFA10BD10B500F039
:402F4000CDFA03680C2B00D1FEE7FEE770B50F4E0F4D13E029686B68AC68002202E001C901C30432A242FAD1E868002202E0002102C304328242FAD11035013E002EE9D122
:402F800000F0B2FAFFF7AEFFFEE7C046010000008438000010B500230AE0032B03D89A000C49505800E00C4899000C4A885001332F2BF2D9FFF7C4FE094B1B68002B02D1D7
:402FC0000022074B1A608022D205116801230B43136010BD802C00003D2F000000000020C0000020014B18807047C04600100F40014B18807047C04680100F40014B1880C3
:403000007047C04640100F40014B18707047C04681000F40014B1878C0B2704761000F40014B188880B27047A0100F4010B501E0FFF7F6FFFFF7EEFFC306F9D410BDC0466D
:4030400070B512490A7801231A43D2B20A70104C22781343DBB223700E4D2800FFF7C2FF2800FFF7C5FF0C48FFF7C8FF0020FFF7CBFF00F02BFA227810231343DBB22370FE
:4030800000F028FAFFF7D2FF70BDC04690000F4091000F40FFFF0000AF3C000010B5054B1B78002B04D1FFF7CBFF0122014B1A7010BDC04664010020034A1368802109062B
:4030C0000B4313607047C04600000240034A1368802109060B4313607047C046400002401F2318401E3B8340014A13607047C04600E100E001BE704770B504000D001F28B3
:4031000002D90020FFF7F6FF1034A40080239B059C4664442068256070BDC04610B5034B1B7B584300F0C8F910BDC046CC000020F0B557464E46C0B483B0040000F0C6F9D0
:403140000190E71E2D2F74D83F4B1B78DBB29C4208D83E4B1B78DBB29A463D4B1B78DBB2994631E03B4B1B78DBB29C4208D83A4B1B78DBB29A46394B1B78DBB2994623E019
:40318000374B1B78DBB29C4208D8364B1B78DBB29A46354B1B78DBB2994615E0334B1B78DBB29C4208D8324B1B78DBB29A46314B1B78DBB2994607E02F4B1B78DBB29A4605
:4031C0002E4B1B78DBB299462D4BDE5D2F2E09D92A2C07D919222B4B1A60052000F06CF9192503E0274B1D683F231D40B54206D9234BDA5D234B1A60052000F05DF91F4B7B
:403200009C4664442378DBB21F4A13601F4B52461A601F4B4A461A600520FFF77FFFB5420AD2174BDA5D174B1A60052000F044F902E00020FFF75EFF019800F04BF903B008
:403240000CBC91469A46F0BDC0F1FF0FC1F1FF0FC2F1FF0FC3F1FF0FC4F1FF0FC5F1FF0FC6F1FF0FC7F1FF0FC8F1FF0FC9F1FF0FCAF1FF0FCBF1FF0FCCF1FF0FCDF1FF0F55
:40328000303800002CFF0B4028FF0B401CFF0B4020FF0B40034B1868C0231B02184000D00120704700010B4010B500F00FF9044A1368C02109020B43136000F00BF910BDE0
:4032C00000010B4010B500F001F908490A68084B1A408024E40122430A600A6813408022120213430B6000F0F5F810BD00010B40FF3FFFFF70B5050000F0E8F80400FFF7A9
:40330000C9FF002803D0FFF7DDFF012100E0002108482840084A1568084B2B40184310601368012901D1FFF7BFFF200000F0D2F870BDC0460404040010020B40FBFBFBFF34
:4033400010B5244B1B685B0715D5234B1B685B070ED5224BD969042001401F4C22688A432260DA698243DA611B69002B00D098470420FFF7BFFF174B1B685B0518D5164BB0
:403380001B685B0510D5154BD9698022D2001140114802688A430260D969114A0A40DA615B69002B00D098478020C000FFF7A2FF084B1B685B030CD5074B1B685B0304D514
:4033C000064B9B69002B00D098478020C002FFF791FF10BD10020B40E000002068010020FFFBFFFF034A117880235B420B43DBB21370704773000F40014B18707047C0468D
:4034000083000F40014B1878C0B2704763000F40014B18807047C04644100F40014B188880B2704784100F40014B18807047C04604100F40034A117810230B43DBB213709C
:403440007047C04673000F4010B501E0FFF7E6FFFFF7D8FF0307F9D410BDC04610B50C4C2000FFF7D5FF2000FFF7DEFF00F02EF8084A117810230B43DBB2137000F02AF847
:40348000FFF7D8FFFFF7E0FF0020FFF7B5FF10BD0FA4000093000F4010B5064B1B78002B04D1FFF7DBFF0122024B1A70FFF79AFF10BDC046880100200230800804D0C0462C
:4034C0000138FDD1C046C046C0467047EFF3108072B6704780F310887047C046014B18687047C046440100200E4B70B500251E000D4CE41AA410A54204D0AB00F358984799
:403500000135F8E700F0ACF9084B00251E00084CE41AA410A54204D0AB00F35898470135F8E770BD6C3800006C3800006C3800007438000003008218934202D019700133DA
:40354000FAE770470000000000300F40000400400F400004810D830D040606090C300D01110212241406150119021A121E302006240128082C0130303301340E3502360122
:4035800039083C203E014023410649FF4AFF4BFF4DA04F045018580459045A045C335D035F01604062C06440654066C068C06AC06CC06EC087038A018B038E0696019D0252
:4035C000A002A20CA814AA0AB008B210B401B501B606B702B802BB80BD80BE55C063C102C5D1C702C833C9FFCAFFCBFFCDAFCE0FCF04D018D405D804D904DA04DB04DC3062
:40360000DD33DF05E040E2C0E440E540E6C0E8C0EAC0ECC0EEC0000401400608070109180A410F20102A12801480152018041A011B121D411E18212826B0270430223208E0
:40364000368038803E083F20400443044608470448084C204D014F20540B56085D815E087A107E2081018210870289408CC08D118E04C0C5C22FC45FCC17CE68D066D224B1
:40368000D6D0DE42E010E2800102031407010A040E070F0F13011403181219021A091B141C091E121F0822072B062F0F310E32183407351037013F10403549FF4AFF4BFFD9
:4036C0004F015018580459045A045C225D025F016040624064406540668068806A806C806E808001860287018E028F0492029304970298019B04A401A503AE02B002B3048B
:40370000B503B601BC80BE01BF04C035C5ECC720C823C9FFCAFFCBFFCD83CE03CF01D018D290D401D804D904DA04DB04DC13DD22DF01E040E240E440E540E680E880EA8072
:40374000EC80EE8000460480051009220E110F0410201202168019801A401C041D101E10211822202304274928202E90311232083622374038C03A043C443D023E0141080A
:40378000450849054A024E02520259055A407040710272807A108308952098209A049D809F01A021A121A218A820A940B648C0CDC2EAC415CA32CCB7CEDAD042D218D60B92
:4037C000DE02EE045040570167808040830887408B018D04D420D620D880E2B005045B105F0883109B089D04C020D480D680E220030405020F808F04C006C204E608A90292
:40380000B740EE02010E100E02000F405F300F4039310F405E320F4040330F400C400F400A410F4007420F4003430F4002600F40030405060708090A0B0C0E0F101112132A
:403840001415161718191B1C1D1E1F2021222325262728292A2B2E2F3031323334354300F8B5C046F8BC08BC9E467047AD2E0000952F0000F8B5C046F8BC08BC9E46704798
:40388000852E000098380000C800002080000000480000000000000000000000010000000000E02EC05D00001800000000366E0104040400000000000000000000000000E0
:4038C00000000000000000000000000000000000000000005E3800000000000000000000000000000000000000000000000000000000000000000000000000000000000032
:403900000000000000000000000000000000000000000000E40000200000000000000000000000000000000000000000000000000000000000000000000000000000000083
:403940000000000000000000000000000000000000000000000000000000000000000000000000000000000000000000000000000000000000000000000000000000000047
:4039800000100020913900001D3C00001D3C000010B5024B83F3088800F048F90010002070B5184C23688022D20213432360182000F02EFA2268144B13402360134A144BB4
:4039C0001A601022134B1A602032134B1A60103A124B1A6080221206114B1A6000252560104A114B1A60114B114A1360114A13601149092000F0F0F9092000F0E1F90F4BED
:403A00001D6070BD00010B40FFFFFBFF0600008004010B4034020240380202403C02024008010B400100008000000240170000804000024080000240214000000C020B40A2
:403A400010B572B600240FE02C486200131959000B00411889881A5AC31858880004104300F0D6F80134E4B2012CEDD923490C31234800F0B3F8234A234B1A60CC229202EE
:403A8000224B1A60EE221202214B1A6099231B04204A13602049214A1160214A1360B0218904204A1160204A1360204A1360204A204B1A6020490B783C229343142213434C
:403AC000DBB20B701D4A117816230B43DBB2137025221B4B1A601B4A1B4B1A6018221B4B1A601B4A1B4B1A601B4A1C4B1A60D82212011B4B1A60FFF753FF10BDF8410000EB
:403B0000784400000303300000000140040001400C00014000500F400000230C08500F4010500F4018500F4020500F4030500F40C4C404C4D8300F4001700F4000700F4031
:403B400000000440860103000800044000010440186C000008010440D8800100080204400803044010B5064C2378002B07D1054B002B02D0044800E000BF0123237010BDAE
:403B80004801002000000000F4410000084B10B5002B03D00749084800E000BF07480368002B00D110BD064B002BFBD09847F9E7000000004C010020F4410000C8000020FF
:403BC0000000000010B562B600F0D8F800F0EEF800F0E2F800F0BAFAFEE7C046F0B50025002711E0BB00C658F3B2FF22964308E06A008A181478A419527822700135013B94
:403C0000DBB2002BF4D10137092FEBD9F0BDC04610B50A00002100F0E5FA10BD10B500F0B5FA03680C2B00D1FEE7FEE770B50F4E0F4D13E029686B68AC68002202E001C9DC
:403C400001C30432A242FAD1E868002202E0002102C304328242FAD11035013E002EE9D100F09AFAFFF7AEFFFEE7C04601000000F444000010B500230AE0032B03D89A0070
:403C80000C49505800E00C4899000C4A885001332F2BF2D9FFF7D4FE094B1B68002B02D10022074B1A608022D205116801230B43136010BD803900001D3C00000000002052
:403CC000C0000020014B18807047C04600100F40014B18807047C04680100F40014B18807047C04640100F40014B18707047C04681000F40014B1878C0B2704761000F400E
:403D0000014B188880B27047A0100F4010B501E0FFF7F6FFFFF7EEFFC306F9D410BDC04670B512490A7801231A43D2B20A70104C22781343DBB223700E4D2800FFF7C2FFAB
:403D40002800FFF7C5FF0C48FFF7C8FF0020FFF7CBFF00F013FA227810231343DBB2237000F010FAFFF7D2FF70BDC04690000F4091000F40FFFF0000AF3C000010B5054B7F
:403D80001B78002B04D1FFF7CBFF0122014B1A7010BDC04664010020034A1368802109060B4313607047C04600000240034A1368802109060B4313607047C04640000240AF
:403DC0001F2318401E3B8340014A13607047C04600E100E001BE704770B504000D001F2802D90020FFF7F6FF1034A40080239B059C4664442068256070BDC04610B5034BF0
:403E00001B7B584300F0B0F910BDC046CC000020F0B557464E46C0B483B0040000F0AEF90190E71E2D2F74D83F4B1B78DBB29C4208D83E4B1B78DBB29A463D4B1B78DBB20A
:403E4000994631E03B4B1B78DBB29C4208D83A4B1B78DBB29A46394B1B78DBB2994623E0374B1B78DBB29C4208D8364B1B78DBB29A46354B1B78DBB2994615E0334B1B787D
:403E8000DBB29C4208D8324B1B78DBB29A46314B1B78DBB2994607E02F4B1B78DBB29A462E4B1B78DBB299462D4BDE5D2F2E09D92A2C07D919222B4B1A60052000F054F931
:403EC000192503E0274B1D683F231D40B54206D9234BDA5D234B1A60052000F045F91F4B9C4664442378DBB21F4A13601F4B52461A601F4B4A461A600520FFF77FFFB542BD
:403F00000AD2174BDA5D174B1A60052000F02CF902E00020FFF75EFF019800F033F903B00CBC91469A46F0BDC0F1FF0FC1F1FF0FC2F1FF0FC3F1FF0FC4F1FF0FC5F1FF0F84
:403F4000C6F1FF0FC7F1FF0FC8F1FF0FC9F1FF0FCAF1FF0FCBF1FF0FCCF1FF0FCDF1FF0FA04400002CFF0B4028FF0B401CFF0B4020FF0B40034B1868C0231B02184000D06B
:403F80000120704700010B4010B500F0F7F8044A1368C02109020B43136000F0F3F810BD00010B4010B500F0E9F808490A68084B1A408024E40122430A600A68134080220A
:403FC000120213430B6000F0DDF810BD00010B40FF3FFFFF70B5050000F0D0F80400FFF7C9FF002803D0FFF7DDFF012100E0002108482840084A1568084B2B40184310602E
:404000001368012901D1FFF7BFFF200000F0BAF870BDC0460404040010020B40FBFBFBFF10B5244B1B685B0715D5234B1B685B070ED5224BD969042001401F4C22688A43F8
:404040002260DA698243DA611B69002B00D098470420FFF7BFFF174B1B685B0518D5164B1B685B0510D5154BD9698022D2001140114802688A430260D969114A0A40DA616F
:404080005B69002B00D098478020C000FFF7A2FF084B1B685B030CD5074B1B685B0304D5064B9B69002B00D098478020C002FFF791FF10BD10020B40E00000206801002080
:4040C000FFFBFFFF014B18707047C04683000F40014B1878C0B2704763000F40014B18807047C04644100F40014B188880B2704784100F40014B18807047C04604100F40AE
:4041000010B501E0FFF7F0FFFFF7E2FF0307F9D410BDC04610B50B4C2000FFF7DFFF2000FFF7E8FF00F02AF8074A117810230B43DBB2137000F026F8FFF7E2FF0020FFF7EE
:40414000C1FF10BD0FA4000093000F4010B5054B1B78002B04D1FFF7DDFF0122014B1A7010BDC046880100200230800804D0C0460138FDD1C046C046C0467047EFF3108058
:4041800072B6704780F310887047C046014B18687047C046440100200E4B70B500251E000D4CE41AA410A54204D0AB00F35898470135F8E700F08CF9084B00251E00084C9A
:4041C000E41AA410A54204D0AB00F35898470135F8E770BDDC440000DC440000DC440000E444000003008218934202D019700133FAE770470000000000300F400004004057
:404200000F400004810D830D01010406060807040A040C010F0411021202180619011C062101240129022C0830013101340E3502370439203C203D024025410449FF4AFF4D
:404240004BFF4DA04F045018580459045A045C335D035F01604062C06440654066C068C06AC06CC06EC082018B018F0196019C01B501B601BA80BC80BF10C065C104C5D005
:40428000C602C710C827C9FFCAFFCBFFCDAFCE0FCF04D018D405D804D904DA04DB04DC03DD33DF05E040E2C0E440E540E6C0E8C0EAC0ECC0EEC000040201030806800920C1
:4042C0000A410E010F2010201180180419021B101E012002216022402380270829022B083020330238043A813E803F2040044280468048014B404C204D014F6055405681B0
:404300005D015F8879807E40824083028E04C017C2ABC405CA05CC05CE3BD085D238D6D0DE88E2041318150A17141B061C021E0528012A062D152F0A30043106320433180A
:4043400035013603370638023E453F54401249FF4AFF4BFF4F015018580459045A045C205D025F016040624064406540668068806A806C806E8087048A028E018F0397021C
:404380009904A104A503A803AF01B503B603B704BF10C012C5ECC620C80BC9FFCAFFCBFFCD83CE03CF01D018D401D804D904DA04DB04DC31DD22DF01E040E240E440E5408B
:4043C000E680E880EA80EC80EE80030A0E011204171019801A011D801F05200821402548260127082A052B022D80302033083629380439803D803E4041A045A049055120E9
:40440000522059055A408308840487048B088D088E088F1190049A05A020A302A708C003C280C442CA1BCCE6CE0AD03CD60BE240E440E6105B105F206740D480D620D880F9
:40444000062057016308831087418E208F2497409F30C020D620D840E220E650020104010D0182018C01C006C204E60889019102E204010E100E000002000F4057300F40D4
:4044800037310F4053320F4035330F4006400F400E410F4008420F4003430F4002600F40030405060708090A0B0C0E0F101112131415161718191B1C1D1E1F202122232537
:4044C000262728292A2B2E2F3031323334354300F8B5C046F8BC08BC9E4670478D3B0000753C0000F8B5C046F8BC08BC9E467047653B000008450000C800002080000000A0
:40450000480000000000000000000000010000000000E02EC05D00001800000000366E0104040400000000000000000000000000000000000000000000000000000000003E
:4045400000000000CE440000000000000000000000000000000000000000000000000000000000000000000000000000000000000000000000000000000000000000000029
:4045800000000000E40000200000000000000000000000000000000000000000000000000000000000000000000000000000000000000000000000000000000000000000F7
:4045C00000000000000000000000000000000000000000000000000000000000000000000000000000000000000000000000000000000000000000000000000000000000BB
:40460000000000000000000000000000000000000000000000000000000000000000000000000000000000000000000000000000000000000000000000000000000000007A
:40464000000000000000000000000000000000000000000000000000000000000000000000000000000000000000000000000000000000000000000000000000000000003A
:4046800000000000000000000000000000000000000000000000000000000000000000000000000000000000000000000000000000000000000000000000000000000000FA
:407FC000EB9139000072000000800C0000000000000000000000000000000000000000000000000000000000000000000000000000000000000000000000000000000000CE
:0200000490303A
:0200000005B940
:0200000490402A
:200000000000000000000000000000000000000000000000000000000000000000000000E0
:0200000490501A
:0C000000000204C81193110104DE174C2B
:0200000490600A
:0100000001FE
:00000001FF